{
  "contractName": "Bet",
  "abi": [
    {
      "constant": true,
      "inputs": [
        {
          "name": "",
          "type": "bytes32"
        }
      ],
      "name": "statementsList",
      "outputs": [
        {
          "name": "party1",
          "type": "address"
        },
        {
          "name": "party2",
          "type": "address"
        },
        {
          "name": "judge",
          "type": "address"
        },
        {
          "name": "tweetId",
          "type": "bytes32"
        },
        {
          "name": "stake",
          "type": "uint256"
        },
        {
          "name": "confirmed",
          "type": "bool"
        }
      ],
      "payable": false,
      "stateMutability": "view",
      "type": "function"
    },
    {
      "constant": true,
      "inputs": [
        {
          "name": "",
          "type": "address"
        },
        {
          "name": "",
          "type": "uint256"
        }
      ],
      "name": "statementsListByJudge",
      "outputs": [
        {
          "name": "party1",
          "type": "address"
        },
        {
          "name": "party2",
          "type": "address"
        },
        {
          "name": "judge",
          "type": "address"
        },
        {
          "name": "tweetId",
          "type": "bytes32"
        },
        {
          "name": "stake",
          "type": "uint256"
        },
        {
          "name": "confirmed",
          "type": "bool"
        }
      ],
      "payable": false,
      "stateMutability": "view",
      "type": "function"
    },
    {
      "constant": true,
      "inputs": [
        {
          "name": "judge",
          "type": "address"
        }
      ],
      "name": "getStatementsForJudge",
      "outputs": [
        {
          "components": [
            {
              "name": "party1",
              "type": "address"
            },
            {
              "name": "party2",
              "type": "address"
            },
            {
              "name": "judge",
              "type": "address"
            },
            {
              "name": "tweetId",
              "type": "bytes32"
            },
            {
              "name": "stake",
              "type": "uint256"
            },
            {
              "name": "confirmed",
              "type": "bool"
            }
          ],
          "name": "",
          "type": "tuple[]"
        }
      ],
      "payable": false,
      "stateMutability": "view",
      "type": "function"
    },
    {
      "constant": false,
      "inputs": [
        {
          "name": "party2",
          "type": "address"
        },
        {
          "name": "judge",
          "type": "address"
        },
        {
          "name": "tweetId",
          "type": "bytes32"
        }
      ],
      "name": "createStatement",
      "outputs": [],
      "payable": true,
      "stateMutability": "payable",
      "type": "function"
    },
    {
      "constant": false,
      "inputs": [
        {
          "name": "tweetId",
          "type": "bytes32"
        }
      ],
      "name": "confirmStatement",
      "outputs": [],
      "payable": true,
      "stateMutability": "payable",
      "type": "function"
    },
    {
      "constant": false,
      "inputs": [
        {
          "name": "tweetId",
          "type": "bytes32"
        },
        {
          "name": "_winner",
          "type": "address"
        }
      ],
      "name": "judgeSettles",
      "outputs": [],
      "payable": false,
      "stateMutability": "nonpayable",
      "type": "function"
    }
  ],
  "bytecode": "0x608060405234801561001057600080fd5b50610f7a806100206000396000f300608060405260043610610078576000357c0100000000000000000000000000000000000000000000000000000000900463ffffffff168063214ef4d01461007d57806368b0402f146100bf578063ac0671df146100db578063b90ca05c14610104578063d616d02514610146578063f1b4a00914610183575b600080fd5b34801561008957600080fd5b506100a4600480360361009f9190810190610cad565b61019f565b6040516100b696959493929190610e24565b60405180910390f35b6100d960048036036100d49190810190610cad565b610248565b005b3480156100e757600080fd5b5061010260048036036100fd9190810190610cd6565b610386565b005b34801561011057600080fd5b5061012b60048036036101269190810190610c71565b610585565b60405161013d96959493929190610e24565b60405180910390f35b34801561015257600080fd5b5061016d60048036036101689190810190610bf9565b61064a565b60405161017a9190610e85565b60405180910390f35b61019d60048036036101989190810190610c22565b610822565b005b60006020528060005260406000206000915090508060000160009054906101000a900473ffffffffffffffffffffffffffffffffffffffff16908060010160009054906101000a900473ffffffffffffffffffffffffffffffffffffffff16908060020160009054906101000a900473ffffffffffffffffffffffffffffffffffffffff16908060030154908060040154908060050160009054906101000a900460ff16905086565b600080826000191660001916815260200190815260200160002060050160009054906101000a900460ff1615151561027f57600080fd5b60008082600019166000191681526020019081526020016000206004015434101515156102ab57600080fd5b600080826000191660001916815260200190815260200160002060010160009054906101000a900473ffffffffffffffffffffffffffffffffffffffff1673ffffffffffffffffffffffffffffffffffffffff163373ffffffffffffffffffffffffffffffffffffffff1614151561032257600080fd5b346000808360001916600019168152602001908152602001600020600401600082825401925050819055506001600080836000191660001916815260200190815260200160002060050160006101000a81548160ff02191690831515021790555050565b600080836000191660001916815260200190815260200160002060050160009054906101000a900460ff1615156103bc57600080fd5b600080836000191660001916815260200190815260200160002060000160009054906101000a900473ffffffffffffffffffffffffffffffffffffffff1673ffffffffffffffffffffffffffffffffffffffff168173ffffffffffffffffffffffffffffffffffffffff16148061049b5750600080836000191660001916815260200190815260200160002060010160009054906101000a900473ffffffffffffffffffffffffffffffffffffffff1673ffffffffffffffffffffffffffffffffffffffff168173ffffffffffffffffffffffffffffffffffffffff16145b15156104a657600080fd5b600080836000191660001916815260200190815260200160002060020160009054906101000a900473ffffffffffffffffffffffffffffffffffffffff1673ffffffffffffffffffffffffffffffffffffffff163373ffffffffffffffffffffffffffffffffffffffff1614151561051d57600080fd5b8073ffffffffffffffffffffffffffffffffffffffff166108fc6000808560001916600019168152602001908152602001600020600401549081150290604051600060405180830381858888f19350505050158015610580573d6000803e3d6000fd5b505050565b6001602052816000526040600020818154811015156105a057fe5b9060005260206000209060060201600091509150508060000160009054906101000a900473ffffffffffffffffffffffffffffffffffffffff16908060010160009054906101000a900473ffffffffffffffffffffffffffffffffffffffff16908060020160009054906101000a900473ffffffffffffffffffffffffffffffffffffffff16908060030154908060040154908060050160009054906101000a900460ff16905086565b6060600160008373ffffffffffffffffffffffffffffffffffffffff1673ffffffffffffffffffffffffffffffffffffffff168152602001908152602001600020805480602002602001604051908101604052809291908181526020016000905b82821015610817578382906000526020600020906006020160c060405190810160405290816000820160009054906101000a900473ffffffffffffffffffffffffffffffffffffffff1673ffffffffffffffffffffffffffffffffffffffff1673ffffffffffffffffffffffffffffffffffffffff1681526020016001820160009054906101000a900473ffffffffffffffffffffffffffffffffffffffff1673ffffffffffffffffffffffffffffffffffffffff1673ffffffffffffffffffffffffffffffffffffffff1681526020016002820160009054906101000a900473ffffffffffffffffffffffffffffffffffffffff1673ffffffffffffffffffffffffffffffffffffffff1673ffffffffffffffffffffffffffffffffffffffff168152602001600382015460001916600019168152602001600482015481526020016005820160009054906101000a900460ff161515151581525050815260200190600101906106ab565b505050509050919050565b60c0604051908101604052803373ffffffffffffffffffffffffffffffffffffffff1681526020018473ffffffffffffffffffffffffffffffffffffffff1681526020018373ffffffffffffffffffffffffffffffffffffffff1681526020018260001916815260200134815260200160001515815250600080836000191660001916815260200190815260200160002060008201518160000160006101000a81548173ffffffffffffffffffffffffffffffffffffffff021916908373ffffffffffffffffffffffffffffffffffffffff16021790555060208201518160010160006101000a81548173ffffffffffffffffffffffffffffffffffffffff021916908373ffffffffffffffffffffffffffffffffffffffff16021790555060408201518160020160006101000a81548173ffffffffffffffffffffffffffffffffffffffff021916908373ffffffffffffffffffffffffffffffffffffffff160217905550606082015181600301906000191690556080820151816004015560a08201518160050160006101000a81548160ff021916908315150217905550905050600160008373ffffffffffffffffffffffffffffffffffffffff1673ffffffffffffffffffffffffffffffffffffffff16815260200190815260200160002060c0604051908101604052803373ffffffffffffffffffffffffffffffffffffffff1681526020018573ffffffffffffffffffffffffffffffffffffffff1681526020018473ffffffffffffffffffffffffffffffffffffffff16815260200183600019168152602001348152602001600015158152509080600181540180825580915050906001820390600052602060002090600602016000909192909190915060008201518160000160006101000a81548173ffffffffffffffffffffffffffffffffffffffff021916908373ffffffffffffffffffffffffffffffffffffffff16021790555060208201518160010160006101000a81548173ffffffffffffffffffffffffffffffffffffffff021916908373ffffffffffffffffffffffffffffffffffffffff16021790555060408201518160020160006101000a81548173ffffffffffffffffffffffffffffffffffffffff021916908373ffffffffffffffffffffffffffffffffffffffff160217905550606082015181600301906000191690556080820151816004015560a08201518160050160006101000a81548160ff021916908315150217905550505050505050565b6000610bc98235610f0c565b905092915050565b6000610bdd8235610f2c565b905092915050565b6000610bf18235610f36565b905092915050565b600060208284031215610c0b57600080fd5b6000610c1984828501610bbd565b91505092915050565b600080600060608486031215610c3757600080fd5b6000610c4586828701610bbd565b9350506020610c5686828701610bbd565b9250506040610c6786828701610bd1565b9150509250925092565b60008060408385031215610c8457600080fd5b6000610c9285828601610bbd565b9250506020610ca385828601610be5565b9150509250929050565b600060208284031215610cbf57600080fd5b6000610ccd84828501610bd1565b91505092915050565b60008060408385031215610ce957600080fd5b6000610cf785828601610bd1565b9250506020610d0885828601610bbd565b9150509250929050565b610d1b81610ecc565b82525050565b6000610d2c82610eb4565b808452602084019350610d3e83610ea7565b60005b82811015610d7057610d54868351610d9a565b610d5d82610ebf565b915060c086019550600181019050610d41565b50849250505092915050565b610d8581610eec565b82525050565b610d9481610ef8565b82525050565b60c082016000820151610db06000850182610d12565b506020820151610dc36020850182610d12565b506040820151610dd66040850182610d12565b506060820151610de96060850182610d8b565b506080820151610dfc6080850182610e15565b5060a0820151610e0f60a0850182610d7c565b50505050565b610e1e81610f02565b82525050565b600060c082019050610e396000830189610d12565b610e466020830188610d12565b610e536040830187610d12565b610e606060830186610d8b565b610e6d6080830185610e15565b610e7a60a0830184610d7c565b979650505050505050565b60006020820190508181036000830152610e9f8184610d21565b905092915050565b6000602082019050919050565b600081519050919050565b6000602082019050919050565b600073ffffffffffffffffffffffffffffffffffffffff82169050919050565b60008115159050919050565b6000819050919050565b6000819050919050565b600073ffffffffffffffffffffffffffffffffffffffff82169050919050565b6000819050919050565b60008190509190505600a265627a7a723058207a827301d936235aed692308444e7bcd47a87a767a63b681f445bce5f26702436c6578706572696d656e74616cf50037",
  "source": "//pragma solidity ^0.4.22;\npragma experimental ABIEncoderV2;\n\n\ncontract Bet {\n  struct Statement{\n\taddress party1;\n\taddress party2;\n\taddress judge;\n\tbytes32 tweetId;\n\tuint stake;\n\tbool confirmed;\n  }\n\n  mapping (bytes32 => Statement) public statementsList;\n  mapping (address => Statement[]) public statementsListByJudge;\n\n  function getStatementsForJudge(address judge) public constant returns(Statement[]){\n\t  return statementsListByJudge[judge];\n  }\n\n  function createStatement(address party2, address judge, bytes32 tweetId) public payable{\n\t// add msg.value checks\n\tstatementsList[tweetId] = Statement(msg.sender, party2, judge, tweetId, msg.value,false);\n\tstatementsListByJudge[judge].push(Statement(msg.sender, party2, judge, tweetId, msg.value,false));\n  }\n\n  function confirmStatement(bytes32 tweetId) public payable{\n\t// check it has not been confirmed yet\n\trequire(!statementsList[tweetId].confirmed);\n\t// check it has enough ether for the bet\n\trequire(msg.value >= statementsList[tweetId].stake);\n\t// check that it is the correct user\n\trequire(msg.sender == statementsList[tweetId].party2);\n\t\n\t//increase the value of the stake\n\tstatementsList[tweetId].stake += msg.value;\n\t//confirm the bet\n\tstatementsList[tweetId].confirmed = true;\n  }\n\n  function judgeSettles(bytes32 tweetId, address _winner) public {\n\t// confirm bet is confirmed\n\trequire(statementsList[tweetId].confirmed);\n\t// confirm that the winner _exists_\n\trequire(_winner == statementsList[tweetId].party1 || _winner == statementsList[tweetId].party2);\n\t//confirm the judge is the one calling the function\n\trequire(msg.sender == statementsList[tweetId].judge);\n\t\n\t// transfer the funds to the winner\n\t_winner.transfer(statementsList[tweetId].stake);\n\t\n\t// add tie\n\n\t// record the winner for history purposes\n\t//statementsList[tweetId].winner = _winner;\n\t// transfer the funds to the winner\n\t//statementsList[tweetId].winner.transfer(statementsList[tweetId].stake);\n  }\n\n\n}\n",
  "sourcePath": "/Users/boss/git/chainhack/full-of-tweet/truffle/contracts/Bet.sol",
  "compiler": {
    "name": "solc",
    "version": "0.4.24+commit.e67f0147.Emscripten.clang"
  },
  "schemaVersion": "2.0.1",
  "updatedAt": "2018-06-30T09:51:31.052Z"
}