{
  "contractName": "Bet",
  "abi": [
    {
      "constant": true,
      "inputs": [
        {
          "name": "",
          "type": "bytes32"
        }
      ],
      "name": "statementsList",
      "outputs": [
        {
          "name": "party1",
          "type": "address"
        },
        {
          "name": "party2",
          "type": "address"
        },
        {
          "name": "judge",
          "type": "address"
        },
        {
          "name": "tweetId",
          "type": "bytes32"
        },
        {
          "name": "stake",
          "type": "uint256"
        },
        {
          "name": "confirmed",
          "type": "bool"
        }
      ],
      "payable": false,
      "stateMutability": "view",
      "type": "function"
    },
    {
      "constant": true,
      "inputs": [
        {
          "name": "",
          "type": "address"
        },
        {
          "name": "",
          "type": "uint256"
        }
      ],
      "name": "statementsListByJudge",
      "outputs": [
        {
          "name": "party1",
          "type": "address"
        },
        {
          "name": "party2",
          "type": "address"
        },
        {
          "name": "judge",
          "type": "address"
        },
        {
          "name": "tweetId",
          "type": "bytes32"
        },
        {
          "name": "stake",
          "type": "uint256"
        },
        {
          "name": "confirmed",
          "type": "bool"
        }
      ],
      "payable": false,
      "stateMutability": "view",
      "type": "function"
    },
    {
      "anonymous": false,
      "inputs": [
        {
          "indexed": false,
          "name": "party1",
          "type": "address"
        },
        {
          "indexed": false,
          "name": "party2",
          "type": "address"
        },
        {
          "indexed": false,
          "name": "judge",
          "type": "address"
        }
      ],
      "name": "LogStatement",
      "type": "event"
    },
    {
      "anonymous": false,
      "inputs": [
        {
          "indexed": false,
          "name": "tweetId",
          "type": "bytes32"
        }
      ],
      "name": "LogConfirmedByParty2",
      "type": "event"
    },
    {
      "anonymous": false,
      "inputs": [
        {
          "indexed": false,
          "name": "tweetId",
          "type": "bytes32"
        },
        {
          "indexed": false,
          "name": "_winner",
          "type": "address"
        }
      ],
      "name": "LogConfirmedByJudge",
      "type": "event"
    },
    {
      "constant": true,
      "inputs": [
        {
          "name": "judge",
          "type": "address"
        }
      ],
      "name": "getStatementsForJudgeSize",
      "outputs": [
        {
          "name": "",
          "type": "uint256"
        }
      ],
      "payable": false,
      "stateMutability": "view",
      "type": "function"
    },
    {
      "constant": true,
      "inputs": [
        {
          "name": "judge",
          "type": "address"
        },
        {
          "name": "index",
          "type": "uint256"
        }
      ],
      "name": "getStatementForJudge",
      "outputs": [
        {
          "name": "",
          "type": "bytes32"
        }
      ],
      "payable": false,
      "stateMutability": "view",
      "type": "function"
    },
    {
      "constant": false,
      "inputs": [
        {
          "name": "party2",
          "type": "address"
        },
        {
          "name": "judge",
          "type": "address"
        },
        {
          "name": "tweetId",
          "type": "bytes32"
        }
      ],
      "name": "createStatement",
      "outputs": [
        {
          "name": "",
          "type": "address"
        },
        {
          "name": "",
          "type": "address"
        },
        {
          "name": "",
          "type": "address"
        },
        {
          "name": "",
          "type": "bytes32"
        },
        {
          "name": "",
          "type": "uint256"
        },
        {
          "name": "",
          "type": "bool"
        }
      ],
      "payable": true,
      "stateMutability": "payable",
      "type": "function"
    },
    {
      "constant": false,
      "inputs": [
        {
          "name": "tweetId",
          "type": "bytes32"
        }
      ],
      "name": "confirmStatement",
      "outputs": [],
      "payable": true,
      "stateMutability": "payable",
      "type": "function"
    },
    {
      "constant": false,
      "inputs": [
        {
          "name": "tweetId",
          "type": "bytes32"
        },
        {
          "name": "_winner",
          "type": "address"
        }
      ],
      "name": "judgeSettles",
      "outputs": [],
      "payable": false,
      "stateMutability": "nonpayable",
      "type": "function"
    },
    {
      "constant": false,
      "inputs": [
        {
          "name": "tweetId",
          "type": "bytes32"
        }
      ],
      "name": "judgeSettlesDraw",
      "outputs": [],
      "payable": false,
      "stateMutability": "nonpayable",
      "type": "function"
    }
  ],
  "bytecode": "0x608060405234801561001057600080fd5b50611213806100206000396000f30060806040526004361061008e576000357c0100000000000000000000000000000000000000000000000000000000900463ffffffff168063214ef4d01461009357806368b0402f1461018b578063ac0671df146101af578063b90ca05c14610200578063dc6d7bd314610314578063e27589461461036b578063eac779351461039c578063f1b4a00914610405575b600080fd5b34801561009f57600080fd5b506100c26004803603810190808035600019169060200190929190505050610530565b604051808773ffffffffffffffffffffffffffffffffffffffff1673ffffffffffffffffffffffffffffffffffffffff1681526020018673ffffffffffffffffffffffffffffffffffffffff1673ffffffffffffffffffffffffffffffffffffffff1681526020018573ffffffffffffffffffffffffffffffffffffffff1673ffffffffffffffffffffffffffffffffffffffff168152602001846000191660001916815260200183815260200182151515158152602001965050505050505060405180910390f35b6101ad60048036038101908080356000191690602001909291905050506105d9565b005b3480156101bb57600080fd5b506101fe6004803603810190808035600019169060200190929190803573ffffffffffffffffffffffffffffffffffffffff169060200190929190505050610756565b005b34801561020c57600080fd5b5061024b600480360381019080803573ffffffffffffffffffffffffffffffffffffffff169060200190929190803590602001909291905050506109c8565b604051808773ffffffffffffffffffffffffffffffffffffffff1673ffffffffffffffffffffffffffffffffffffffff1681526020018673ffffffffffffffffffffffffffffffffffffffff1673ffffffffffffffffffffffffffffffffffffffff1681526020018573ffffffffffffffffffffffffffffffffffffffff1673ffffffffffffffffffffffffffffffffffffffff168152602001846000191660001916815260200183815260200182151515158152602001965050505050505060405180910390f35b34801561032057600080fd5b50610355600480360381019080803573ffffffffffffffffffffffffffffffffffffffff169060200190929190505050610a8d565b6040518082815260200191505060405180910390f35b34801561037757600080fd5b5061039a6004803603810190808035600019169060200190929190505050610ad9565b005b3480156103a857600080fd5b506103e7600480360381019080803573ffffffffffffffffffffffffffffffffffffffff16906020019092919080359060200190929190505050610ccb565b60405180826000191660001916815260200191505060405180910390f35b610467600480360381019080803573ffffffffffffffffffffffffffffffffffffffff169060200190929190803573ffffffffffffffffffffffffffffffffffffffff1690602001909291908035600019169060200190929190505050610d33565b604051808773ffffffffffffffffffffffffffffffffffffffff1673ffffffffffffffffffffffffffffffffffffffff1681526020018673ffffffffffffffffffffffffffffffffffffffff1673ffffffffffffffffffffffffffffffffffffffff1681526020018573ffffffffffffffffffffffffffffffffffffffff1673ffffffffffffffffffffffffffffffffffffffff168152602001846000191660001916815260200183815260200182151515158152602001965050505050505060405180910390f35b60006020528060005260406000206000915090508060000160009054906101000a900473ffffffffffffffffffffffffffffffffffffffff16908060010160009054906101000a900473ffffffffffffffffffffffffffffffffffffffff16908060020160009054906101000a900473ffffffffffffffffffffffffffffffffffffffff16908060030154908060040154908060050160009054906101000a900460ff16905086565b600080826000191660001916815260200190815260200160002060050160009054906101000a900460ff1615151561061057600080fd5b600080826000191660001916815260200190815260200160002060040154341015151561063c57600080fd5b600080826000191660001916815260200190815260200160002060010160009054906101000a900473ffffffffffffffffffffffffffffffffffffffff1673ffffffffffffffffffffffffffffffffffffffff163373ffffffffffffffffffffffffffffffffffffffff161415156106b357600080fd5b346000808360001916600019168152602001908152602001600020600401600082825401925050819055506001600080836000191660001916815260200190815260200160002060050160006101000a81548160ff0219169083151502179055507f1a05a7324a66cf1d800af76131d3f0287d9f0e34846f66db39fb893099a93e338160405180826000191660001916815260200191505060405180910390a150565b600080836000191660001916815260200190815260200160002060050160009054906101000a900460ff16151561078c57600080fd5b600080836000191660001916815260200190815260200160002060000160009054906101000a900473ffffffffffffffffffffffffffffffffffffffff1673ffffffffffffffffffffffffffffffffffffffff168173ffffffffffffffffffffffffffffffffffffffff16148061086b5750600080836000191660001916815260200190815260200160002060010160009054906101000a900473ffffffffffffffffffffffffffffffffffffffff1673ffffffffffffffffffffffffffffffffffffffff168173ffffffffffffffffffffffffffffffffffffffff16145b151561087657600080fd5b600080836000191660001916815260200190815260200160002060020160009054906101000a900473ffffffffffffffffffffffffffffffffffffffff1673ffffffffffffffffffffffffffffffffffffffff163373ffffffffffffffffffffffffffffffffffffffff161415156108ed57600080fd5b8073ffffffffffffffffffffffffffffffffffffffff166108fc6000808560001916600019168152602001908152602001600020600401549081150290604051600060405180830381858888f19350505050158015610950573d6000803e3d6000fd5b507f1dfbbd65b56918dab50b52c67f796d527a347c56d22498a98ed317a77dd1922b82826040518083600019166000191681526020018273ffffffffffffffffffffffffffffffffffffffff1673ffffffffffffffffffffffffffffffffffffffff1681526020019250505060405180910390a15050565b6001602052816000526040600020818154811015156109e357fe5b9060005260206000209060060201600091509150508060000160009054906101000a900473ffffffffffffffffffffffffffffffffffffffff16908060010160009054906101000a900473ffffffffffffffffffffffffffffffffffffffff16908060020160009054906101000a900473ffffffffffffffffffffffffffffffffffffffff16908060030154908060040154908060050160009054906101000a900460ff16905086565b6000600160008373ffffffffffffffffffffffffffffffffffffffff1673ffffffffffffffffffffffffffffffffffffffff168152602001908152602001600020805490509050919050565b6000806000806000856000191660001916815260200190815260200160002060050160009054906101000a900460ff161515610b1457600080fd5b600080856000191660001916815260200190815260200160002060020160009054906101000a900473ffffffffffffffffffffffffffffffffffffffff1673ffffffffffffffffffffffffffffffffffffffff163373ffffffffffffffffffffffffffffffffffffffff16141515610b8b57600080fd5b600080856000191660001916815260200190815260200160002060000160009054906101000a900473ffffffffffffffffffffffffffffffffffffffff169250600080856000191660001916815260200190815260200160002060010160009054906101000a900473ffffffffffffffffffffffffffffffffffffffff1691506002600080866000191660001916815260200190815260200160002060040154811515610c3457fe5b0490508273ffffffffffffffffffffffffffffffffffffffff166108fc829081150290604051600060405180830381858888f19350505050158015610c7d573d6000803e3d6000fd5b508173ffffffffffffffffffffffffffffffffffffffff166108fc829081150290604051600060405180830381858888f19350505050158015610cc4573d6000803e3d6000fd5b5050505050565b6000600160008473ffffffffffffffffffffffffffffffffffffffff1673ffffffffffffffffffffffffffffffffffffffff16815260200190815260200160002082815481101515610d1957fe5b906000526020600020906006020160030154905092915050565b600080600080600080610d44611169565b60c0604051908101604052803373ffffffffffffffffffffffffffffffffffffffff1681526020018b73ffffffffffffffffffffffffffffffffffffffff1681526020018a73ffffffffffffffffffffffffffffffffffffffff16815260200189600019168152602001348152602001600015158152509050806000808a6000191660001916815260200190815260200160002060008201518160000160006101000a81548173ffffffffffffffffffffffffffffffffffffffff021916908373ffffffffffffffffffffffffffffffffffffffff16021790555060208201518160010160006101000a81548173ffffffffffffffffffffffffffffffffffffffff021916908373ffffffffffffffffffffffffffffffffffffffff16021790555060408201518160020160006101000a81548173ffffffffffffffffffffffffffffffffffffffff021916908373ffffffffffffffffffffffffffffffffffffffff160217905550606082015181600301906000191690556080820151816004015560a08201518160050160006101000a81548160ff021916908315150217905550905050600160008a73ffffffffffffffffffffffffffffffffffffffff1673ffffffffffffffffffffffffffffffffffffffff168152602001908152602001600020819080600181540180825580915050906001820390600052602060002090600602016000909192909190915060008201518160000160006101000a81548173ffffffffffffffffffffffffffffffffffffffff021916908373ffffffffffffffffffffffffffffffffffffffff16021790555060208201518160010160006101000a81548173ffffffffffffffffffffffffffffffffffffffff021916908373ffffffffffffffffffffffffffffffffffffffff16021790555060408201518160020160006101000a81548173ffffffffffffffffffffffffffffffffffffffff021916908373ffffffffffffffffffffffffffffffffffffffff160217905550606082015181600301906000191690556080820151816004015560a08201518160050160006101000a81548160ff0219169083151502179055505050507f65576ae84deb6c04f7c0e4aba2ab2d64253f3f7b2b9c42818318a7bcca607bf7338b8b604051808473ffffffffffffffffffffffffffffffffffffffff1673ffffffffffffffffffffffffffffffffffffffff1681526020018373ffffffffffffffffffffffffffffffffffffffff1673ffffffffffffffffffffffffffffffffffffffff1681526020018273ffffffffffffffffffffffffffffffffffffffff1673ffffffffffffffffffffffffffffffffffffffff168152602001935050505060405180910390a1806000015181602001518260400151836060015184608001518560a001519650965096509650965096505093975093979195509350565b60c060405190810160405280600073ffffffffffffffffffffffffffffffffffffffff168152602001600073ffffffffffffffffffffffffffffffffffffffff168152602001600073ffffffffffffffffffffffffffffffffffffffff168152602001600080191681526020016000815260200160001515815250905600a165627a7a723058209091646a8382a936dbb94de03d8dbbaf9dbcc81fff69dc7f6a37baf53ee3b6d80029",
  "source": "pragma solidity ^0.4.22;\n//pragma experimental ABIEncoderV2;\n\n\ncontract Bet {\n  struct Statement{\n\taddress party1;\n\taddress party2;\n\taddress judge;\n\tbytes32 tweetId;\n\tuint stake;\n\tbool confirmed;\n  }\n\n \tevent LogStatement(address party1,address party2, address judge);\n  event LogConfirmedByParty2(bytes32 tweetId);\n  event LogConfirmedByJudge(bytes32 tweetId, address _winner);\n\n  mapping (bytes32 => Statement) public statementsList;\n  mapping (address => Statement[]) public statementsListByJudge;\n\n  function getStatementsForJudgeSize(address judge) public constant returns(uint256){\n\t\n\treturn statementsListByJudge[judge].length;\n  }\n\n  function getStatementForJudge(address judge,uint256 index) public view returns(bytes32){\n\t\n\treturn statementsListByJudge[judge][index].tweetId;\n  }\n\n  function createStatement(address party2, address judge, bytes32 tweetId) public payable returns(address, address, address,bytes32, uint,bool){\n\t// add msg.value checks\n\tStatement memory currStatement = Statement(msg.sender, party2, judge, tweetId, msg.value,false);\n\tstatementsList[tweetId] = currStatement;\n\tstatementsListByJudge[judge].push(currStatement);\n\n\temit LogStatement(msg.sender,party2, judge);\n\n\treturn (currStatement.party1, currStatement.party2, currStatement.judge, currStatement.tweetId, currStatement.stake, currStatement.confirmed);\n  }\n\n\n  function confirmStatement(bytes32 tweetId) public payable{\n\t// check it has not been confirmed yet\n\trequire(!statementsList[tweetId].confirmed);\n\t// check it has enough ether for the bet\n\trequire(msg.value >= statementsList[tweetId].stake);\n\t// check that it is the correct user\n\trequire(msg.sender == statementsList[tweetId].party2);\n\t\n\t//increase the value of the stake\n\tstatementsList[tweetId].stake += msg.value;\n\t//confirm the bet\n\tstatementsList[tweetId].confirmed = true;\n\temit LogConfirmedByParty2(tweetId);\n  }\n\n  function judgeSettles(bytes32 tweetId, address _winner) public {\n\t// confirm bet is confirmed\n\trequire(statementsList[tweetId].confirmed);\n\t// confirm that the winner _exists_\n\trequire(_winner == statementsList[tweetId].party1 || _winner == statementsList[tweetId].party2);\n\t//confirm the judge is the one calling the function\n\trequire(msg.sender == statementsList[tweetId].judge);\n\t\n\t// transfer the funds to the winner\n\t_winner.transfer(statementsList[tweetId].stake);\n\t\n\temit LogConfirmedByJudge(tweetId, _winner);\n\n  }\n \n  function judgeSettlesDraw(bytes32 tweetId) public {\n\t\t// confirm bet is confirmed\n\t\trequire(statementsList[tweetId].confirmed);\n\t\t//confirm the judge is the one calling the function\n\t\trequire(msg.sender == statementsList[tweetId].judge);\n\t\t\n\t\taddress party1 = statementsList[tweetId].party1;\n\t\taddress party2 = statementsList[tweetId].party2;\n\t\tuint valueToTransfer = statementsList[tweetId].stake/2;\n\n\t\tparty1.transfer(valueToTransfer);\n\t\tparty2.transfer(valueToTransfer);\n\t}\n}\n",
  "sourcePath": "/Users/boss/git/chainhack/full-of-tweet/truffle/contracts/Bet.sol",
  "compiler": {
    "name": "solc",
    "version": "0.4.24+commit.e67f0147.Emscripten.clang"
  },
  "schemaVersion": "2.0.1",
  "updatedAt": "2018-06-30T14:01:05.197Z"
}