{
  "contractName": "Bet",
  "abi": [
    {
      "constant": true,
      "inputs": [
        {
          "name": "",
          "type": "bytes32"
        }
      ],
      "name": "statementsList",
      "outputs": [
        {
          "name": "party1",
          "type": "address"
        },
        {
          "name": "party2",
          "type": "address"
        },
        {
          "name": "judge",
          "type": "address"
        },
        {
          "name": "tweetId",
          "type": "bytes32"
        },
        {
          "name": "stake",
          "type": "uint256"
        },
        {
          "name": "confirmed",
          "type": "bool"
        },
        {
          "name": "settled",
          "type": "bool"
        }
      ],
      "payable": false,
      "stateMutability": "view",
      "type": "function"
    },
    {
      "constant": true,
      "inputs": [
        {
          "name": "",
          "type": "address"
        },
        {
          "name": "",
          "type": "uint256"
        }
      ],
      "name": "statementsListByJudge",
      "outputs": [
        {
          "name": "party1",
          "type": "address"
        },
        {
          "name": "party2",
          "type": "address"
        },
        {
          "name": "judge",
          "type": "address"
        },
        {
          "name": "tweetId",
          "type": "bytes32"
        },
        {
          "name": "stake",
          "type": "uint256"
        },
        {
          "name": "confirmed",
          "type": "bool"
        },
        {
          "name": "settled",
          "type": "bool"
        }
      ],
      "payable": false,
      "stateMutability": "view",
      "type": "function"
    },
    {
      "anonymous": false,
      "inputs": [
        {
          "indexed": false,
          "name": "party1",
          "type": "address"
        },
        {
          "indexed": false,
          "name": "party2",
          "type": "address"
        },
        {
          "indexed": false,
          "name": "judge",
          "type": "address"
        }
      ],
      "name": "LogStatement",
      "type": "event"
    },
    {
      "anonymous": false,
      "inputs": [
        {
          "indexed": false,
          "name": "tweetId",
          "type": "bytes32"
        }
      ],
      "name": "LogConfirmedByParty2",
      "type": "event"
    },
    {
      "anonymous": false,
      "inputs": [
        {
          "indexed": false,
          "name": "tweetId",
          "type": "bytes32"
        },
        {
          "indexed": false,
          "name": "_winner",
          "type": "address"
        }
      ],
      "name": "LogConfirmedByJudge",
      "type": "event"
    },
    {
      "constant": true,
      "inputs": [
        {
          "name": "judge",
          "type": "address"
        }
      ],
      "name": "getStatementsForJudgeSize",
      "outputs": [
        {
          "name": "",
          "type": "uint256"
        }
      ],
      "payable": false,
      "stateMutability": "view",
      "type": "function"
    },
    {
      "constant": true,
      "inputs": [
        {
          "name": "judge",
          "type": "address"
        },
        {
          "name": "index",
          "type": "uint256"
        }
      ],
      "name": "getStatementForJudge",
      "outputs": [
        {
          "name": "",
          "type": "bytes32"
        }
      ],
      "payable": false,
      "stateMutability": "view",
      "type": "function"
    },
    {
      "constant": false,
      "inputs": [
        {
          "name": "party2",
          "type": "address"
        },
        {
          "name": "judge",
          "type": "address"
        },
        {
          "name": "tweetId",
          "type": "bytes32"
        }
      ],
      "name": "createStatement",
      "outputs": [
        {
          "name": "",
          "type": "address"
        },
        {
          "name": "",
          "type": "address"
        },
        {
          "name": "",
          "type": "address"
        },
        {
          "name": "",
          "type": "bytes32"
        },
        {
          "name": "",
          "type": "uint256"
        },
        {
          "name": "",
          "type": "bool"
        }
      ],
      "payable": true,
      "stateMutability": "payable",
      "type": "function"
    },
    {
      "constant": false,
      "inputs": [
        {
          "name": "tweetId",
          "type": "bytes32"
        }
      ],
      "name": "confirmStatement",
      "outputs": [],
      "payable": true,
      "stateMutability": "payable",
      "type": "function"
    },
    {
      "constant": false,
      "inputs": [
        {
          "name": "tweetId",
          "type": "bytes32"
        },
        {
          "name": "_winner",
          "type": "address"
        }
      ],
      "name": "judgeSettles",
      "outputs": [],
      "payable": false,
      "stateMutability": "nonpayable",
      "type": "function"
    },
    {
      "constant": false,
      "inputs": [
        {
          "name": "tweetId",
          "type": "bytes32"
        }
      ],
      "name": "judgeSettlesDraw",
      "outputs": [],
      "payable": false,
      "stateMutability": "nonpayable",
      "type": "function"
    }
  ],
  "bytecode": "0x608060405234801561001057600080fd5b5061130d806100206000396000f30060806040526004361061008e576000357c0100000000000000000000000000000000000000000000000000000000900463ffffffff168063214ef4d01461009357806368b0402f14610196578063ac0671df146101ba578063b90ca05c1461020b578063dc6d7bd31461032a578063e275894614610381578063eac77935146103b2578063f1b4a0091461041b575b600080fd5b34801561009f57600080fd5b506100c26004803603810190808035600019169060200190929190505050610546565b604051808873ffffffffffffffffffffffffffffffffffffffff1673ffffffffffffffffffffffffffffffffffffffff1681526020018773ffffffffffffffffffffffffffffffffffffffff1673ffffffffffffffffffffffffffffffffffffffff1681526020018673ffffffffffffffffffffffffffffffffffffffff1673ffffffffffffffffffffffffffffffffffffffff1681526020018560001916600019168152602001848152602001831515151581526020018215151515815260200197505050505050505060405180910390f35b6101b86004803603810190808035600019169060200190929190505050610602565b005b3480156101c657600080fd5b506102096004803603810190808035600019169060200190929190803573ffffffffffffffffffffffffffffffffffffffff16906020019092919050505061077f565b005b34801561021757600080fd5b50610256600480360381019080803573ffffffffffffffffffffffffffffffffffffffff16906020019092919080359060200190929190505050610a27565b604051808873ffffffffffffffffffffffffffffffffffffffff1673ffffffffffffffffffffffffffffffffffffffff1681526020018773ffffffffffffffffffffffffffffffffffffffff1673ffffffffffffffffffffffffffffffffffffffff1681526020018673ffffffffffffffffffffffffffffffffffffffff1673ffffffffffffffffffffffffffffffffffffffff1681526020018560001916600019168152602001848152602001831515151581526020018215151515815260200197505050505050505060405180910390f35b34801561033657600080fd5b5061036b600480360381019080803573ffffffffffffffffffffffffffffffffffffffff169060200190929190505050610aff565b6040518082815260200191505060405180910390f35b34801561038d57600080fd5b506103b06004803603810190808035600019169060200190929190505050610b4b565b005b3480156103be57600080fd5b506103fd600480360381019080803573ffffffffffffffffffffffffffffffffffffffff16906020019092919080359060200190929190505050610d73565b60405180826000191660001916815260200191505060405180910390f35b61047d600480360381019080803573ffffffffffffffffffffffffffffffffffffffff169060200190929190803573ffffffffffffffffffffffffffffffffffffffff1690602001909291908035600019169060200190929190505050610ddb565b604051808773ffffffffffffffffffffffffffffffffffffffff1673ffffffffffffffffffffffffffffffffffffffff1681526020018673ffffffffffffffffffffffffffffffffffffffff1673ffffffffffffffffffffffffffffffffffffffff1681526020018573ffffffffffffffffffffffffffffffffffffffff1673ffffffffffffffffffffffffffffffffffffffff168152602001846000191660001916815260200183815260200182151515158152602001965050505050505060405180910390f35b60006020528060005260406000206000915090508060000160009054906101000a900473ffffffffffffffffffffffffffffffffffffffff16908060010160009054906101000a900473ffffffffffffffffffffffffffffffffffffffff16908060020160009054906101000a900473ffffffffffffffffffffffffffffffffffffffff16908060030154908060040154908060050160009054906101000a900460ff16908060050160019054906101000a900460ff16905087565b600080826000191660001916815260200190815260200160002060050160009054906101000a900460ff1615151561063957600080fd5b600080826000191660001916815260200190815260200160002060040154341015151561066557600080fd5b600080826000191660001916815260200190815260200160002060010160009054906101000a900473ffffffffffffffffffffffffffffffffffffffff1673ffffffffffffffffffffffffffffffffffffffff163373ffffffffffffffffffffffffffffffffffffffff161415156106dc57600080fd5b346000808360001916600019168152602001908152602001600020600401600082825401925050819055506001600080836000191660001916815260200190815260200160002060050160006101000a81548160ff0219169083151502179055507f1a05a7324a66cf1d800af76131d3f0287d9f0e34846f66db39fb893099a93e338160405180826000191660001916815260200191505060405180910390a150565b600080836000191660001916815260200190815260200160002060050160009054906101000a900460ff1615156107b557600080fd5b600080836000191660001916815260200190815260200160002060000160009054906101000a900473ffffffffffffffffffffffffffffffffffffffff1673ffffffffffffffffffffffffffffffffffffffff168173ffffffffffffffffffffffffffffffffffffffff1614806108945750600080836000191660001916815260200190815260200160002060010160009054906101000a900473ffffffffffffffffffffffffffffffffffffffff1673ffffffffffffffffffffffffffffffffffffffff168173ffffffffffffffffffffffffffffffffffffffff16145b151561089f57600080fd5b600080836000191660001916815260200190815260200160002060020160009054906101000a900473ffffffffffffffffffffffffffffffffffffffff1673ffffffffffffffffffffffffffffffffffffffff163373ffffffffffffffffffffffffffffffffffffffff1614151561091657600080fd5b6001600080846000191660001916815260200190815260200160002060050160016101000a81548160ff0219169083151502179055508073ffffffffffffffffffffffffffffffffffffffff166108fc6000808560001916600019168152602001908152602001600020600401549081150290604051600060405180830381858888f193505050501580156109af573d6000803e3d6000fd5b507f1dfbbd65b56918dab50b52c67f796d527a347c56d22498a98ed317a77dd1922b82826040518083600019166000191681526020018273ffffffffffffffffffffffffffffffffffffffff1673ffffffffffffffffffffffffffffffffffffffff1681526020019250505060405180910390a15050565b600160205281600052604060002081815481101515610a4257fe5b9060005260206000209060060201600091509150508060000160009054906101000a900473ffffffffffffffffffffffffffffffffffffffff16908060010160009054906101000a900473ffffffffffffffffffffffffffffffffffffffff16908060020160009054906101000a900473ffffffffffffffffffffffffffffffffffffffff16908060030154908060040154908060050160009054906101000a900460ff16908060050160019054906101000a900460ff16905087565b6000600160008373ffffffffffffffffffffffffffffffffffffffff1673ffffffffffffffffffffffffffffffffffffffff168152602001908152602001600020805490509050919050565b6000806000806000856000191660001916815260200190815260200160002060050160009054906101000a900460ff161515610b8657600080fd5b600080856000191660001916815260200190815260200160002060020160009054906101000a900473ffffffffffffffffffffffffffffffffffffffff1673ffffffffffffffffffffffffffffffffffffffff163373ffffffffffffffffffffffffffffffffffffffff16141515610bfd57600080fd5b600080856000191660001916815260200190815260200160002060000160009054906101000a900473ffffffffffffffffffffffffffffffffffffffff169250600080856000191660001916815260200190815260200160002060010160009054906101000a900473ffffffffffffffffffffffffffffffffffffffff1691506002600080866000191660001916815260200190815260200160002060040154811515610ca657fe5b0490506001600080866000191660001916815260200190815260200160002060050160016101000a81548160ff0219169083151502179055508273ffffffffffffffffffffffffffffffffffffffff166108fc829081150290604051600060405180830381858888f19350505050158015610d25573d6000803e3d6000fd5b508173ffffffffffffffffffffffffffffffffffffffff166108fc829081150290604051600060405180830381858888f19350505050158015610d6c573d6000803e3d6000fd5b5050505050565b6000600160008473ffffffffffffffffffffffffffffffffffffffff1673ffffffffffffffffffffffffffffffffffffffff16815260200190815260200160002082815481101515610dc157fe5b906000526020600020906006020160030154905092915050565b600080600080600080610dec61125a565b60e0604051908101604052803373ffffffffffffffffffffffffffffffffffffffff1681526020018b73ffffffffffffffffffffffffffffffffffffffff1681526020018a73ffffffffffffffffffffffffffffffffffffffff16815260200189600019168152602001348152602001600015158152602001600015158152509050806000808a6000191660001916815260200190815260200160002060008201518160000160006101000a81548173ffffffffffffffffffffffffffffffffffffffff021916908373ffffffffffffffffffffffffffffffffffffffff16021790555060208201518160010160006101000a81548173ffffffffffffffffffffffffffffffffffffffff021916908373ffffffffffffffffffffffffffffffffffffffff16021790555060408201518160020160006101000a81548173ffffffffffffffffffffffffffffffffffffffff021916908373ffffffffffffffffffffffffffffffffffffffff160217905550606082015181600301906000191690556080820151816004015560a08201518160050160006101000a81548160ff02191690831515021790555060c08201518160050160016101000a81548160ff021916908315150217905550905050600160008a73ffffffffffffffffffffffffffffffffffffffff1673ffffffffffffffffffffffffffffffffffffffff168152602001908152602001600020819080600181540180825580915050906001820390600052602060002090600602016000909192909190915060008201518160000160006101000a81548173ffffffffffffffffffffffffffffffffffffffff021916908373ffffffffffffffffffffffffffffffffffffffff16021790555060208201518160010160006101000a81548173ffffffffffffffffffffffffffffffffffffffff021916908373ffffffffffffffffffffffffffffffffffffffff16021790555060408201518160020160006101000a81548173ffffffffffffffffffffffffffffffffffffffff021916908373ffffffffffffffffffffffffffffffffffffffff160217905550606082015181600301906000191690556080820151816004015560a08201518160050160006101000a81548160ff02191690831515021790555060c08201518160050160016101000a81548160ff0219169083151502179055505050507f65576ae84deb6c04f7c0e4aba2ab2d64253f3f7b2b9c42818318a7bcca607bf7338b8b604051808473ffffffffffffffffffffffffffffffffffffffff1673ffffffffffffffffffffffffffffffffffffffff1681526020018373ffffffffffffffffffffffffffffffffffffffff1673ffffffffffffffffffffffffffffffffffffffff1681526020018273ffffffffffffffffffffffffffffffffffffffff1673ffffffffffffffffffffffffffffffffffffffff168152602001935050505060405180910390a1806000015181602001518260400151836060015184608001518560a001519650965096509650965096505093975093979195509350565b60e060405190810160405280600073ffffffffffffffffffffffffffffffffffffffff168152602001600073ffffffffffffffffffffffffffffffffffffffff168152602001600073ffffffffffffffffffffffffffffffffffffffff168152602001600080191681526020016000815260200160001515815260200160001515815250905600a165627a7a72305820f35a26dca7e5987ccfb977f36f9dc25b13059f149fe27b8a1a77f5a09dfea6ff0029",
  "source": "pragma solidity ^0.4.22;\r\n//pragma experimental ABIEncoderV2;\r\n\r\n\r\ncontract Bet {\r\n  struct Statement{\r\n\taddress party1;\r\n\taddress party2;\r\n\taddress judge;\r\n\tbytes32 tweetId;\r\n\tuint stake;\r\n\tbool confirmed;\r\n\tbool settled;\r\n  }\r\n\r\n \tevent LogStatement(address party1,address party2, address judge);\r\n  event LogConfirmedByParty2(bytes32 tweetId);\r\n  event LogConfirmedByJudge(bytes32 tweetId, address _winner);\r\n\r\n  mapping (bytes32 => Statement) public statementsList;\r\n  mapping (address => Statement[]) public statementsListByJudge;\r\n\r\n  function getStatementsForJudgeSize(address judge) public constant returns(uint256){\r\n\t\r\n\treturn statementsListByJudge[judge].length;\r\n  }\r\n\r\n  function getStatementForJudge(address judge,uint256 index) public view returns(bytes32){\r\n\t\r\n\treturn statementsListByJudge[judge][index].tweetId;\r\n  }\r\n\r\n  function createStatement(address party2, address judge, bytes32 tweetId) public payable returns(address, address, address,bytes32, uint,bool){\r\n\t// add msg.value checks\r\n\tStatement memory currStatement = Statement(msg.sender, party2, judge, tweetId, msg.value,false,false);\r\n\tstatementsList[tweetId] = currStatement;\r\n\tstatementsListByJudge[judge].push(currStatement);\r\n\r\n\temit LogStatement(msg.sender,party2, judge);\r\n\r\n\treturn (currStatement.party1, currStatement.party2, currStatement.judge, currStatement.tweetId, currStatement.stake, currStatement.confirmed);\r\n  }\r\n\r\n\r\n  function confirmStatement(bytes32 tweetId) public payable{\r\n\t// check it has not been confirmed yet\r\n\trequire(!statementsList[tweetId].confirmed);\r\n\t// check it has enough ether for the bet\r\n\trequire(msg.value >= statementsList[tweetId].stake);\r\n\t// check that it is the correct user\r\n\trequire(msg.sender == statementsList[tweetId].party2);\r\n\t\r\n\t//increase the value of the stake\r\n\tstatementsList[tweetId].stake += msg.value;\r\n\t//confirm the bet\r\n\tstatementsList[tweetId].confirmed = true;\r\n\temit LogConfirmedByParty2(tweetId);\r\n  }\r\n\r\n  function judgeSettles(bytes32 tweetId, address _winner) public {\r\n\t// confirm bet is confirmed\r\n\trequire(statementsList[tweetId].confirmed);\r\n\t// confirm that the winner _exists_\r\n\trequire(_winner == statementsList[tweetId].party1 || _winner == statementsList[tweetId].party2);\r\n\t//confirm the judge is the one calling the function\r\n\trequire(msg.sender == statementsList[tweetId].judge);\r\n\t\r\n\tstatementsList[tweetId].settled = true;\r\n\r\n\t// transfer the funds to the winner\r\n\t_winner.transfer(statementsList[tweetId].stake);\r\n\t\r\n\temit LogConfirmedByJudge(tweetId, _winner);\r\n\r\n  }\r\n \r\n  function judgeSettlesDraw(bytes32 tweetId) public {\r\n\t\t// confirm bet is confirmed\r\n\t\trequire(statementsList[tweetId].confirmed);\r\n\t\t//confirm the judge is the one calling the function\r\n\t\trequire(msg.sender == statementsList[tweetId].judge);\r\n\t\t\r\n\t\taddress party1 = statementsList[tweetId].party1;\r\n\t\taddress party2 = statementsList[tweetId].party2;\r\n\t\tuint valueToTransfer = statementsList[tweetId].stake/2;\r\n\r\n\t\tstatementsList[tweetId].settled = true;\r\n\r\n\t\tparty1.transfer(valueToTransfer);\r\n\t\tparty2.transfer(valueToTransfer);\r\n\t}\r\n}\r\n",
  "sourcePath": "/home/pedro/DAPPS/full-of-tweet-ethereum/truffle/contracts/Bet.sol",
  "compiler": {
    "name": "solc",
    "version": "0.4.24+commit.e67f0147.Emscripten.clang"
  },
  "schemaVersion": "2.0.1",
  "updatedAt": "2018-07-01T09:37:22.320Z"
}