{
  "contractName": "FullOfTweet",
  "abi": [
    {
      "constant": true,
      "inputs": [
        {
          "name": "",
          "type": "bytes32"
        }
      ],
      "name": "statementsList",
      "outputs": [
        {
          "name": "issuer",
          "type": "address"
        },
        {
          "name": "judge",
          "type": "address"
        },
        {
          "name": "tweetId",
          "type": "bytes32"
        },
        {
          "name": "issuerStake",
          "type": "uint256"
        },
        {
          "name": "communityStake",
          "type": "uint256"
        },
        {
          "name": "numberOfStakedUsers",
          "type": "uint256"
        },
        {
          "name": "evaluated",
          "type": "bool"
        }
      ],
      "payable": false,
      "stateMutability": "view",
      "type": "function"
    },
    {
      "constant": true,
      "inputs": [
        {
          "name": "",
          "type": "address"
        },
        {
          "name": "",
          "type": "uint256"
        }
      ],
      "name": "statementsListByJudge",
      "outputs": [
        {
          "name": "issuer",
          "type": "address"
        },
        {
          "name": "judge",
          "type": "address"
        },
        {
          "name": "tweetId",
          "type": "bytes32"
        },
        {
          "name": "issuerStake",
          "type": "uint256"
        },
        {
          "name": "communityStake",
          "type": "uint256"
        },
        {
          "name": "numberOfStakedUsers",
          "type": "uint256"
        },
        {
          "name": "evaluated",
          "type": "bool"
        }
      ],
      "payable": false,
      "stateMutability": "view",
      "type": "function"
    },
    {
      "constant": true,
      "inputs": [
        {
          "name": "",
          "type": "address"
        }
      ],
      "name": "userReputation",
      "outputs": [
        {
          "name": "",
          "type": "uint256"
        }
      ],
      "payable": false,
      "stateMutability": "view",
      "type": "function"
    },
    {
      "constant": true,
      "inputs": [
        {
          "name": "judge",
          "type": "address"
        }
      ],
      "name": "getStatementsForJudgeSize",
      "outputs": [
        {
          "name": "",
          "type": "uint256"
        }
      ],
      "payable": false,
      "stateMutability": "view",
      "type": "function"
    },
    {
      "constant": true,
      "inputs": [
        {
          "name": "judge",
          "type": "address"
        },
        {
          "name": "index",
          "type": "uint256"
        }
      ],
      "name": "getStatementForJudge",
      "outputs": [
        {
          "name": "",
          "type": "bytes32"
        }
      ],
      "payable": false,
      "stateMutability": "view",
      "type": "function"
    },
    {
      "constant": false,
      "inputs": [
        {
          "name": "judge",
          "type": "address"
        },
        {
          "name": "tweetId",
          "type": "bytes32"
        }
      ],
      "name": "createStatement",
      "outputs": [
        {
          "name": "",
          "type": "address"
        },
        {
          "name": "",
          "type": "address"
        },
        {
          "name": "",
          "type": "bytes32"
        },
        {
          "name": "",
          "type": "uint256"
        },
        {
          "name": "",
          "type": "uint256"
        },
        {
          "name": "",
          "type": "uint256"
        },
        {
          "name": "",
          "type": "bool"
        }
      ],
      "payable": true,
      "stateMutability": "payable",
      "type": "function"
    },
    {
      "constant": false,
      "inputs": [
        {
          "name": "tweetId",
          "type": "bytes32"
        }
      ],
      "name": "addStake",
      "outputs": [],
      "payable": true,
      "stateMutability": "payable",
      "type": "function"
    },
    {
      "constant": false,
      "inputs": [
        {
          "name": "tweetId",
          "type": "bytes32"
        }
      ],
      "name": "settleCommunityStake",
      "outputs": [],
      "payable": false,
      "stateMutability": "nonpayable",
      "type": "function"
    },
    {
      "constant": false,
      "inputs": [
        {
          "name": "tweetId",
          "type": "bytes32"
        }
      ],
      "name": "settleReputation",
      "outputs": [],
      "payable": false,
      "stateMutability": "nonpayable",
      "type": "function"
    }
  ],
  "bytecode": "0x608060405234801561001057600080fd5b50610d03806100206000396000f300608060405260043610610099576000357c0100000000000000000000000000000000000000000000000000000000900463ffffffff1680631cec86071461009e578063214ef4d0146100cf57806366da754b146101a25780636a385828146101c6578063936190ca146102ac578063b90ca05c146102dd578063dc6d7bd3146103cc578063e503bb0514610423578063eac779351461047a575b600080fd5b3480156100aa57600080fd5b506100cd60048036038101908080356000191690602001909291905050506104e3565b005b3480156100db57600080fd5b506100fe60048036038101908080356000191690602001909291905050506105b6565b604051808873ffffffffffffffffffffffffffffffffffffffff1673ffffffffffffffffffffffffffffffffffffffff1681526020018773ffffffffffffffffffffffffffffffffffffffff1673ffffffffffffffffffffffffffffffffffffffff16815260200186600019166000191681526020018581526020018481526020018381526020018215151515815260200197505050505050505060405180910390f35b6101c46004803603810190808035600019169060200190929190505050610645565b005b610208600480360381019080803573ffffffffffffffffffffffffffffffffffffffff1690602001909291908035600019169060200190929190505050610718565b604051808873ffffffffffffffffffffffffffffffffffffffff1673ffffffffffffffffffffffffffffffffffffffff1681526020018773ffffffffffffffffffffffffffffffffffffffff1673ffffffffffffffffffffffffffffffffffffffff16815260200186600019166000191681526020018581526020018481526020018381526020018215151515815260200197505050505050505060405180910390f35b3480156102b857600080fd5b506102db6004803603810190808035600019169060200190929190505050610a19565b005b3480156102e957600080fd5b50610328600480360381019080803573ffffffffffffffffffffffffffffffffffffffff16906020019092919080359060200190929190505050610af1565b604051808873ffffffffffffffffffffffffffffffffffffffff1673ffffffffffffffffffffffffffffffffffffffff1681526020018773ffffffffffffffffffffffffffffffffffffffff1673ffffffffffffffffffffffffffffffffffffffff16815260200186600019166000191681526020018581526020018481526020018381526020018215151515815260200197505050505050505060405180910390f35b3480156103d857600080fd5b5061040d600480360381019080803573ffffffffffffffffffffffffffffffffffffffff169060200190929190505050610b9c565b6040518082815260200191505060405180910390f35b34801561042f57600080fd5b50610464600480360381019080803573ffffffffffffffffffffffffffffffffffffffff169060200190929190505050610be8565b6040518082815260200191505060405180910390f35b34801561048657600080fd5b506104c5600480360381019080803573ffffffffffffffffffffffffffffffffffffffff16906020019092919080359060200190929190505050610c00565b60405180826000191660001916815260200191505060405180910390f35b60006001600083600019166000191681526020019081526020016000206004015411151561051057600080fd5b60016000826000191660001916815260200190815260200160002060010160009054906101000a900473ffffffffffffffffffffffffffffffffffffffff1673ffffffffffffffffffffffffffffffffffffffff166108fc600160008460001916600019168152602001908152602001600020600401549081150290604051600060405180830381858888f193505050501580156105b2573d6000803e3d6000fd5b5050565b60016020528060005260406000206000915090508060000160009054906101000a900473ffffffffffffffffffffffffffffffffffffffff16908060010160009054906101000a900473ffffffffffffffffffffffffffffffffffffffff16908060020154908060030154908060040154908060050154908060060160009054906101000a900460ff16905087565b6000341115156106bd576040517f08c379a000000000000000000000000000000000000000000000000000000000815260040180806020018281038252601b8152602001807f7374616b652076616c75652063616e206e6f74206265207a65726f000000000081525060200191505060405180910390fd5b3460016000836000191660001916815260200190815260200160002060040160008282540192505081905550600180600083600019166000191681526020019081526020016000206005016000828254019250508190555050565b600080600080600080600061072b610c68565b60e0604051908101604052803373ffffffffffffffffffffffffffffffffffffffff1681526020018b73ffffffffffffffffffffffffffffffffffffffff1681526020018a600019168152602001348152602001600081526020016000815260200160001515815250905080600160008b6000191660001916815260200190815260200160002060008201518160000160006101000a81548173ffffffffffffffffffffffffffffffffffffffff021916908373ffffffffffffffffffffffffffffffffffffffff16021790555060208201518160010160006101000a81548173ffffffffffffffffffffffffffffffffffffffff021916908373ffffffffffffffffffffffffffffffffffffffff16021790555060408201518160020190600019169055606082015181600301556080820151816004015560a0820151816005015560c08201518160060160006101000a81548160ff021916908315150217905550905050600260008b73ffffffffffffffffffffffffffffffffffffffff1673ffffffffffffffffffffffffffffffffffffffff168152602001908152602001600020819080600181540180825580915050906001820390600052602060002090600702016000909192909190915060008201518160000160006101000a81548173ffffffffffffffffffffffffffffffffffffffff021916908373ffffffffffffffffffffffffffffffffffffffff16021790555060208201518160010160006101000a81548173ffffffffffffffffffffffffffffffffffffffff021916908373ffffffffffffffffffffffffffffffffffffffff16021790555060408201518160020190600019169055606082015181600301556080820151816004015560a0820151816005015560c08201518160060160006101000a81548160ff021916908315150217905550505050806000015181602001518260400151836060015184608001518560a001518660c0015197509750975097509750975097505092959891949750929550565b600060016000836000191660001916815260200190815260200160002060050154111515610a4657600080fd5b6001600082600019166000191681526020019081526020016000206004015460008060016000856000191660001916815260200190815260200160002060000160009054906101000a900473ffffffffffffffffffffffffffffffffffffffff1673ffffffffffffffffffffffffffffffffffffffff1673ffffffffffffffffffffffffffffffffffffffff1681526020019081526020016000206000828254019250508190555050565b600260205281600052604060002081815481101515610b0c57fe5b9060005260206000209060070201600091509150508060000160009054906101000a900473ffffffffffffffffffffffffffffffffffffffff16908060010160009054906101000a900473ffffffffffffffffffffffffffffffffffffffff16908060020154908060030154908060040154908060050154908060060160009054906101000a900460ff16905087565b6000600260008373ffffffffffffffffffffffffffffffffffffffff1673ffffffffffffffffffffffffffffffffffffffff168152602001908152602001600020805490509050919050565b60006020528060005260406000206000915090505481565b6000600260008473ffffffffffffffffffffffffffffffffffffffff1673ffffffffffffffffffffffffffffffffffffffff16815260200190815260200160002082815481101515610c4e57fe5b906000526020600020906007020160020154905092915050565b60e060405190810160405280600073ffffffffffffffffffffffffffffffffffffffff168152602001600073ffffffffffffffffffffffffffffffffffffffff1681526020016000801916815260200160008152602001600081526020016000815260200160001515815250905600a165627a7a72305820423d3c158d8996ef585d2127950577cbf2fb43f2ae28ab57d0799189c438df160029",
  "source": "pragma solidity ^0.4.22;\r\n\r\n\r\ncontract FullOfTweet {\r\n\r\n  struct Statement{\r\n    address issuer;\r\n    address judge;\r\n    bytes32 tweetId;\r\n    uint issuerStake;\r\n    uint communityStake;\r\n    uint numberOfStakedUsers;\r\n    bool evaluated;\r\n  }\r\n\r\n  mapping (address => uint) public userReputation;\r\n  mapping (bytes32 => Statement) public statementsList;\r\n  mapping (address => Statement[]) public statementsListByJudge;\r\n\r\n  function getStatementsForJudgeSize(address judge) public constant returns(uint256){\r\n\t\r\n\treturn statementsListByJudge[judge].length;\r\n  }\r\n\r\n  function getStatementForJudge(address judge,uint256 index) public view returns(bytes32){\r\n\t\r\n\treturn statementsListByJudge[judge][index].tweetId;\r\n  }\r\n\r\n  function createStatement(address judge, bytes32 tweetId) public payable returns(address, address,bytes32, uint, uint, uint, bool){\r\n\t// add msg.value checks\r\n    \r\n    Statement memory currStatement = Statement(msg.sender, judge, tweetId, msg.value,0,0,false);\r\n    statementsList[tweetId] = currStatement;\r\n    statementsListByJudge[judge].push(currStatement);\r\n\r\n    return (currStatement.issuer, currStatement.judge, currStatement.tweetId, currStatement.issuerStake, currStatement.communityStake, \r\n    currStatement.numberOfStakedUsers, currStatement.evaluated);\r\n  }\r\n\r\n  // Add community stake\r\n  function addStake(bytes32 tweetId) public payable{\r\n    // check it has value\r\n    require(msg.value > 0, \"stake value can not be zero\");\r\n    // add stake to Statement\r\n    statementsList[tweetId].communityStake += msg.value;\r\n    // increase number of staked users\r\n    statementsList[tweetId].numberOfStakedUsers += 1;\r\n  }\r\n\r\n  function settleCommunityStake(bytes32 tweetId){\r\n    // check there is stake in the statement\r\n    require(statementsList[tweetId].communityStake > 0);\r\n    // transfer stake to the judge\r\n    statementsList[tweetId].judge.transfer(statementsList[tweetId].communityStake);\r\n  }\r\n\r\n  function settleReputation(bytes32 tweetId){\r\n    // check there are users staked in the Statement\r\n    require(statementsList[tweetId].numberOfStakedUsers > 0);\r\n    userReputation[statementsList[tweetId].issuer] += statementsList[tweetId].communityStake;\r\n  }\r\n\r\n\r\n  /* function judgeSettles(bytes32 tweetId, address _winner) public {\r\n    // confirm bet is confirmed\r\n    require(statementsList[tweetId].evaluated);\r\n    // confirm that the winner _exists_\r\n    require(_winner == statementsList[tweetId].party1 || _winner == statementsList[tweetId].party2);\r\n    //confirm the judge is the one calling the function\r\n    require(msg.sender == statementsList[tweetId].judge);\r\n    \r\n    // transfer the funds to the winner\r\n    _winner.transfer(statementsList[tweetId].stake);\r\n     */\r\n    // add tie\r\n\r\n    // record the winner for history purposes\r\n    //statementsList[tweetId].winner = _winner;\r\n    // transfer the funds to the winner\r\n    //statementsList[tweetId].winner.transfer(statementsList[tweetId].stake);\r\n  \r\n  \r\n}",
  "sourcePath": "/home/pedro/DAPPS/full-of-tweet-ethereum/truffle/contracts/FullOfTweet.sol",
  "compiler": {
    "name": "solc",
    "version": "0.4.24+commit.e67f0147.Emscripten.clang"
  },
  "schemaVersion": "2.0.1",
  "updatedAt": "2018-06-30T15:43:21.276Z"
}